{
  "contractName": "clientHandler",
  "abi": [
    {
      "inputs": [
        {
          "internalType": "address",
          "name": "storeadmin",
          "type": "address"
        },
        {
          "internalType": "address",
          "name": "erc20token",
          "type": "address"
        }
      ],
      "stateMutability": "nonpayable",
      "type": "constructor"
    },
    {
      "anonymous": false,
      "inputs": [
        {
          "indexed": true,
          "internalType": "address",
          "name": "sender",
          "type": "address"
        },
        {
          "indexed": true,
          "internalType": "address",
          "name": "to",
          "type": "address"
        },
        {
          "indexed": false,
          "internalType": "uint256",
          "name": "amount",
          "type": "uint256"
        }
      ],
      "name": "AdminDeposited",
      "type": "event"
    },
    {
      "anonymous": false,
      "inputs": [
        {
          "indexed": true,
          "internalType": "address",
          "name": "sender",
          "type": "address"
        },
        {
          "indexed": true,
          "internalType": "address",
          "name": "to",
          "type": "address"
        },
        {
          "indexed": false,
          "internalType": "uint256",
          "name": "amount",
          "type": "uint256"
        }
      ],
      "name": "AdminWithdrawed",
      "type": "event"
    },
    {
      "anonymous": false,
      "inputs": [
        {
          "indexed": true,
          "internalType": "address",
          "name": "sender",
          "type": "address"
        },
        {
          "indexed": false,
          "internalType": "uint256",
          "name": "amount",
          "type": "uint256"
        }
      ],
      "name": "Deposited",
      "type": "event"
    },
    {
      "anonymous": false,
      "inputs": [
        {
          "indexed": true,
          "internalType": "address",
          "name": "previousOwner",
          "type": "address"
        },
        {
          "indexed": true,
          "internalType": "address",
          "name": "newOwner",
          "type": "address"
        }
      ],
      "name": "OwnershipTransferred",
      "type": "event"
    },
    {
      "anonymous": false,
      "inputs": [
        {
          "indexed": false,
          "internalType": "address",
          "name": "account",
          "type": "address"
        }
      ],
      "name": "Paused",
      "type": "event"
    },
    {
      "anonymous": false,
      "inputs": [
        {
          "indexed": true,
          "internalType": "address",
          "name": "newAdmin",
          "type": "address"
        },
        {
          "indexed": true,
          "internalType": "address",
          "name": "oldAdmin",
          "type": "address"
        }
      ],
      "name": "StoreAdminshipTransferred",
      "type": "event"
    },
    {
      "anonymous": false,
      "inputs": [
        {
          "indexed": true,
          "internalType": "address",
          "name": "sender",
          "type": "address"
        },
        {
          "indexed": true,
          "internalType": "address",
          "name": "to",
          "type": "address"
        },
        {
          "indexed": true,
          "internalType": "string",
          "name": "chainId",
          "type": "string"
        },
        {
          "indexed": false,
          "internalType": "uint256",
          "name": "amount",
          "type": "uint256"
        },
        {
          "indexed": false,
          "internalType": "uint256",
          "name": "nonce",
          "type": "uint256"
        }
      ],
      "name": "StoreDeposited",
      "type": "event"
    },
    {
      "anonymous": false,
      "inputs": [
        {
          "indexed": true,
          "internalType": "address",
          "name": "sender",
          "type": "address"
        },
        {
          "indexed": true,
          "internalType": "address",
          "name": "to",
          "type": "address"
        },
        {
          "indexed": true,
          "internalType": "string",
          "name": "hashid",
          "type": "string"
        },
        {
          "indexed": false,
          "internalType": "uint256",
          "name": "size",
          "type": "uint256"
        },
        {
          "indexed": false,
          "internalType": "uint256",
          "name": "nonce",
          "type": "uint256"
        }
      ],
      "name": "StoreOrderExpirationed",
      "type": "event"
    },
    {
      "anonymous": false,
      "inputs": [
        {
          "indexed": true,
          "internalType": "address",
          "name": "sender",
          "type": "address"
        },
        {
          "indexed": true,
          "internalType": "address",
          "name": "to",
          "type": "address"
        },
        {
          "indexed": true,
          "internalType": "string",
          "name": "hashid",
          "type": "string"
        },
        {
          "indexed": false,
          "internalType": "uint256",
          "name": "amount",
          "type": "uint256"
        },
        {
          "indexed": false,
          "internalType": "uint256",
          "name": "size",
          "type": "uint256"
        },
        {
          "indexed": false,
          "internalType": "uint256",
          "name": "nonce",
          "type": "uint256"
        }
      ],
      "name": "StoreOrderPay",
      "type": "event"
    },
    {
      "anonymous": false,
      "inputs": [
        {
          "indexed": true,
          "internalType": "address",
          "name": "sender",
          "type": "address"
        },
        {
          "indexed": true,
          "internalType": "address",
          "name": "to",
          "type": "address"
        },
        {
          "indexed": true,
          "internalType": "string",
          "name": "chainId",
          "type": "string"
        },
        {
          "indexed": false,
          "internalType": "uint256",
          "name": "amount",
          "type": "uint256"
        },
        {
          "indexed": false,
          "internalType": "uint256",
          "name": "nonce",
          "type": "uint256"
        }
      ],
      "name": "StoreWithdrawed",
      "type": "event"
    },
    {
      "anonymous": false,
      "inputs": [
        {
          "indexed": false,
          "internalType": "address",
          "name": "account",
          "type": "address"
        }
      ],
      "name": "Unpaused",
      "type": "event"
    },
    {
      "anonymous": false,
      "inputs": [
        {
          "indexed": true,
          "internalType": "address",
          "name": "sender",
          "type": "address"
        },
        {
          "indexed": false,
          "internalType": "uint256",
          "name": "amount",
          "type": "uint256"
        }
      ],
      "name": "Withdrawed",
      "type": "event"
    },
    {
      "inputs": [],
      "name": "owner",
      "outputs": [
        {
          "internalType": "address",
          "name": "",
          "type": "address"
        }
      ],
      "stateMutability": "view",
      "type": "function"
    },
    {
      "inputs": [],
      "name": "paused",
      "outputs": [
        {
          "internalType": "bool",
          "name": "",
          "type": "bool"
        }
      ],
      "stateMutability": "view",
      "type": "function"
    },
    {
      "inputs": [],
      "name": "renounceOwnership",
      "outputs": [],
      "stateMutability": "nonpayable",
      "type": "function"
    },
    {
      "inputs": [
        {
          "internalType": "address",
          "name": "newOwner",
          "type": "address"
        }
      ],
      "name": "transferOwnership",
      "outputs": [],
      "stateMutability": "nonpayable",
      "type": "function"
    },
    {
      "inputs": [
        {
          "internalType": "uint256",
          "name": "amount",
          "type": "uint256"
        }
      ],
      "name": "adminDeposit",
      "outputs": [],
      "stateMutability": "nonpayable",
      "type": "function"
    },
    {
      "inputs": [
        {
          "internalType": "address",
          "name": "to",
          "type": "address"
        },
        {
          "internalType": "uint256",
          "name": "amount",
          "type": "uint256"
        }
      ],
      "name": "adminWithdraw",
      "outputs": [],
      "stateMutability": "nonpayable",
      "type": "function"
    },
    {
      "inputs": [
        {
          "internalType": "address",
          "name": "to",
          "type": "address"
        },
        {
          "internalType": "uint256",
          "name": "amount",
          "type": "uint256"
        },
        {
          "internalType": "string",
          "name": "chainId",
          "type": "string"
        }
      ],
      "name": "storeDeposit",
      "outputs": [],
      "stateMutability": "nonpayable",
      "type": "function"
    },
    {
      "inputs": [
        {
          "internalType": "address",
          "name": "to",
          "type": "address"
        },
        {
          "internalType": "uint256",
          "name": "amount",
          "type": "uint256"
        },
        {
          "internalType": "string",
          "name": "chainId",
          "type": "string"
        }
      ],
      "name": "storeWithdraw",
      "outputs": [],
      "stateMutability": "nonpayable",
      "type": "function"
    },
    {
      "inputs": [
        {
          "internalType": "address",
          "name": "to",
          "type": "address"
        },
        {
          "internalType": "string",
          "name": "hashid",
          "type": "string"
        },
        {
          "internalType": "uint256",
          "name": "amount",
          "type": "uint256"
        },
        {
          "internalType": "uint256",
          "name": "size",
          "type": "uint256"
        }
      ],
      "name": "storeOrderpay",
      "outputs": [],
      "stateMutability": "nonpayable",
      "type": "function"
    },
    {
      "inputs": [
        {
          "internalType": "address",
          "name": "to",
          "type": "address"
        },
        {
          "internalType": "string",
          "name": "hashid",
          "type": "string"
        },
        {
          "internalType": "uint256",
          "name": "size",
          "type": "uint256"
        }
      ],
      "name": "storeOrderExpiration",
      "outputs": [],
      "stateMutability": "nonpayable",
      "type": "function"
    },
    {
      "inputs": [
        {
          "internalType": "uint256",
          "name": "amount",
          "type": "uint256"
        }
      ],
      "name": "withdraw",
      "outputs": [],
      "stateMutability": "nonpayable",
      "type": "function"
    },
    {
      "inputs": [
        {
          "internalType": "uint256",
          "name": "amount",
          "type": "uint256"
        }
      ],
      "name": "deposit",
      "outputs": [],
      "stateMutability": "nonpayable",
      "type": "function"
    },
    {
      "inputs": [
        {
          "internalType": "address",
          "name": "account",
          "type": "address"
        }
      ],
      "name": "balanceOf",
      "outputs": [
        {
          "internalType": "uint256",
          "name": "",
          "type": "uint256"
        }
      ],
      "stateMutability": "view",
      "type": "function"
    },
    {
      "inputs": [
        {
          "internalType": "address",
          "name": "account",
          "type": "address"
        }
      ],
      "name": "StoreSize",
      "outputs": [
        {
          "internalType": "uint256",
          "name": "",
          "type": "uint256"
        }
      ],
      "stateMutability": "view",
      "type": "function"
    },
    {
      "inputs": [],
      "name": "getStoreAllSize",
      "outputs": [
        {
          "internalType": "uint256",
          "name": "",
          "type": "uint256"
        }
      ],
      "stateMutability": "view",
      "type": "function"
    },
    {
      "inputs": [],
      "name": "getStoreAmount",
      "outputs": [
        {
          "internalType": "uint256",
          "name": "",
          "type": "uint256"
        }
      ],
      "stateMutability": "view",
      "type": "function"
    },
    {
      "inputs": [],
      "name": "getStoreadmin",
      "outputs": [
        {
          "internalType": "address",
          "name": "",
          "type": "address"
        }
      ],
      "stateMutability": "view",
      "type": "function"
    },
    {
      "inputs": [],
      "name": "getToken",
      "outputs": [
        {
          "internalType": "address",
          "name": "",
          "type": "address"
        }
      ],
      "stateMutability": "view",
      "type": "function"
    },
    {
      "inputs": [
        {
          "internalType": "address",
          "name": "newtoken",
          "type": "address"
        }
      ],
      "name": "setToken",
      "outputs": [],
      "stateMutability": "nonpayable",
      "type": "function"
    },
    {
      "inputs": [
        {
          "internalType": "address",
          "name": "newStoreAdmin",
          "type": "address"
        }
      ],
      "name": "transferStoreAdminship",
      "outputs": [],
      "stateMutability": "nonpayable",
      "type": "function"
    },
    {
      "inputs": [
        {
          "internalType": "address",
          "name": "newStoreAdmin",
          "type": "address"
        }
      ],
      "name": "setStoreAdmin",
      "outputs": [],
      "stateMutability": "nonpayable",
      "type": "function"
    }
  ],
  "bytecode": "0x60806040523480156200001157600080fd5b506040516200282b3803806200282b833981810160405281019062000037919062000231565b620000576200004b620000fb60201b60201c565b6200010360201b60201c565b60008060146101000a81548160ff02191690831515021790555081600460006101000a81548173ffffffffffffffffffffffffffffffffffffffff021916908373ffffffffffffffffffffffffffffffffffffffff16021790555080600160006101000a81548173ffffffffffffffffffffffffffffffffffffffff021916908373ffffffffffffffffffffffffffffffffffffffff160217905550505062000278565b600033905090565b60008060009054906101000a900473ffffffffffffffffffffffffffffffffffffffff169050816000806101000a81548173ffffffffffffffffffffffffffffffffffffffff021916908373ffffffffffffffffffffffffffffffffffffffff1602179055508173ffffffffffffffffffffffffffffffffffffffff168173ffffffffffffffffffffffffffffffffffffffff167f8be0079c531659141344cd1fd0a4f28419497f9722a3daafe3b4186f6b6457e060405160405180910390a35050565b600080fd5b600073ffffffffffffffffffffffffffffffffffffffff82169050919050565b6000620001f982620001cc565b9050919050565b6200020b81620001ec565b81146200021757600080fd5b50565b6000815190506200022b8162000200565b92915050565b600080604083850312156200024b576200024a620001c7565b5b60006200025b858286016200021a565b92505060206200026e858286016200021a565b9150509250929050565b6125a380620002886000396000f3fe608060405234801561001057600080fd5b50600436106101375760003560e01c806370a08231116100b85780639f012d6a1161007c5780639f012d6a146102ec578063af0090671461030a578063b6b55f2514610326578063e711630f14610342578063e8d954ad14610372578063f2fde38b1461038e57610137565b806370a082311461025a5780637119c98c1461028a578063715018a6146102a65780637222ce45146102b05780638da5cb5b146102ce57610137565b80633f9cb08d116100ff5780633f9cb08d146101cc578063401d4482146101e8578063423db02d1461020457806342933a49146102205780635c975abb1461023c57610137565b8063086877941461013c578063144fa6d71461015857806321df0da714610174578063242d2208146101925780632e1a7d4d146101b0575b600080fd5b61015660048036038101906101519190611a5b565b6103aa565b005b610172600480360381019061016d9190611ae6565b6104f3565b005b61017c61053f565b6040516101899190611b22565b60405180910390f35b61019a610569565b6040516101a79190611b22565b60405180910390f35b6101ca60048036038101906101c59190611a5b565b610593565b005b6101e660048036038101906101e19190611c83565b610801565b005b61020260048036038101906101fd9190611cf2565b610992565b005b61021e60048036038101906102199190611ae6565b610bc6565b005b61023a60048036038101906102359190611ae6565b610d10565b005b610244610dde565b6040516102519190611d4d565b60405180910390f35b610274600480360381019061026f9190611ae6565b610df4565b6040516102819190611d77565b60405180910390f35b6102a4600480360381019061029f9190611d92565b610e3d565b005b6102ae611107565b005b6102b861111b565b6040516102c59190611d77565b60405180910390f35b6102d6611125565b6040516102e39190611b22565b60405180910390f35b6102f461114e565b6040516103019190611d77565b60405180910390f35b610324600480360381019061031f9190611e15565b611158565b005b610340600480360381019061033b9190611a5b565b6113b0565b005b61035c60048036038101906103579190611ae6565b611559565b6040516103699190611d77565b60405180910390f35b61038c60048036038101906103879190611c83565b6115a2565b005b6103a860048036038101906103a39190611ae6565b6117fa565b005b600160009054906101000a900473ffffffffffffffffffffffffffffffffffffffff1673ffffffffffffffffffffffffffffffffffffffff166323b872dd3330846040518463ffffffff1660e01b815260040161040993929190611e84565b6020604051808303816000875af1158015610428573d6000803e3d6000fd5b505050506040513d601f19601f8201168201806040525081019061044c9190611ee7565b61048b576040517f08c379a000000000000000000000000000000000000000000000000000000000815260040161048290611f71565b60405180910390fd5b3373ffffffffffffffffffffffffffffffffffffffff163373ffffffffffffffffffffffffffffffffffffffff167f31255324c0084ff1d81faa7c598f8089e8d0b2b5fb78f15dfc2424786262210a836040516104e89190611d77565b60405180910390a350565b6104fb61187d565b80600160006101000a81548173ffffffffffffffffffffffffffffffffffffffff021916908373ffffffffffffffffffffffffffffffffffffffff16021790555050565b6000600160009054906101000a900473ffffffffffffffffffffffffffffffffffffffff16905090565b6000600460009054906101000a900473ffffffffffffffffffffffffffffffffffffffff16905090565b61059b6118fb565b8060055410156105e0576040517f08c379a00000000000000000000000000000000000000000000000000000000081526004016105d790611fdd565b60405180910390fd5b80600560008282546105f2919061202c565b9250508190555080600260003373ffffffffffffffffffffffffffffffffffffffff1673ffffffffffffffffffffffffffffffffffffffff16815260200190815260200160002054101561067b576040517f08c379a0000000000000000000000000000000000000000000000000000000008152600401610672906120ac565b60405180910390fd5b80600260003373ffffffffffffffffffffffffffffffffffffffff1673ffffffffffffffffffffffffffffffffffffffff16815260200190815260200160002060008282546106ca919061202c565b92505081905550600160009054906101000a900473ffffffffffffffffffffffffffffffffffffffff1673ffffffffffffffffffffffffffffffffffffffff1663a9059cbb33836040518363ffffffff1660e01b815260040161072e9291906120cc565b6020604051808303816000875af115801561074d573d6000803e3d6000fd5b505050506040513d601f19601f820116820180604052508101906107719190611ee7565b6107b0576040517f08c379a00000000000000000000000000000000000000000000000000000000081526004016107a790612141565b60405180910390fd5b3373ffffffffffffffffffffffffffffffffffffffff167f6cca423c6ffc06e62a0acc433965e074b11c28479b0449250ce3ff65ac9e39fe826040516107f69190611d77565b60405180910390a250565b610809611945565b73ffffffffffffffffffffffffffffffffffffffff16610827610569565b73ffffffffffffffffffffffffffffffffffffffff161461087d576040517f08c379a0000000000000000000000000000000000000000000000000000000008152600401610874906121ad565b60405180910390fd5b6108856118fb565b81600260008573ffffffffffffffffffffffffffffffffffffffff1673ffffffffffffffffffffffffffffffffffffffff16815260200190815260200160002060008282546108d491906121cd565b9250508190555081600560008282546108ed91906121cd565b9250508190555060016007600082825461090791906121cd565b925050819055508060405161091c9190612272565b60405180910390208373ffffffffffffffffffffffffffffffffffffffff163373ffffffffffffffffffffffffffffffffffffffff167fa8b110ad517a841cc802b5f99ffd946bb8704965745348a9095d4819470a274385600754604051610985929190612289565b60405180910390a4505050565b61099a61187d565b6000600160009054906101000a900473ffffffffffffffffffffffffffffffffffffffff1673ffffffffffffffffffffffffffffffffffffffff166370a08231306040518263ffffffff1660e01b81526004016109f79190611b22565b602060405180830381865afa158015610a14573d6000803e3d6000fd5b505050506040513d601f19601f82011682018060405250810190610a3891906122c7565b905081811015610a7d576040517f08c379a0000000000000000000000000000000000000000000000000000000008152600401610a7490611fdd565b60405180910390fd5b600160009054906101000a900473ffffffffffffffffffffffffffffffffffffffff1673ffffffffffffffffffffffffffffffffffffffff1663a9059cbb84846040518363ffffffff1660e01b8152600401610ada9291906120cc565b6020604051808303816000875af1158015610af9573d6000803e3d6000fd5b505050506040513d601f19601f82011682018060405250810190610b1d9190611ee7565b610b5c576040517f08c379a0000000000000000000000000000000000000000000000000000000008152600401610b5390612340565b60405180910390fd5b8273ffffffffffffffffffffffffffffffffffffffff163373ffffffffffffffffffffffffffffffffffffffff167ff3e5ed0137556c5b9b6d21edbcbc352ea757b0e576fb321f00033af7768362ed84604051610bb99190611d77565b60405180910390a3505050565b610bce611945565b73ffffffffffffffffffffffffffffffffffffffff16610bec610569565b73ffffffffffffffffffffffffffffffffffffffff1614610c42576040517f08c379a0000000000000000000000000000000000000000000000000000000008152600401610c39906121ad565b60405180910390fd5b610c4a6118fb565b6000600460009054906101000a900473ffffffffffffffffffffffffffffffffffffffff16905081600460006101000a81548173ffffffffffffffffffffffffffffffffffffffff021916908373ffffffffffffffffffffffffffffffffffffffff1602179055508173ffffffffffffffffffffffffffffffffffffffff168173ffffffffffffffffffffffffffffffffffffffff167fc5db8a929ac9e4c3c2d0dd77c8ab8dc5ea26b153522e7b47619dd12508ac8c7060405160405180910390a35050565b610d1861187d565b6000600460009054906101000a900473ffffffffffffffffffffffffffffffffffffffff16905081600460006101000a81548173ffffffffffffffffffffffffffffffffffffffff021916908373ffffffffffffffffffffffffffffffffffffffff1602179055508173ffffffffffffffffffffffffffffffffffffffff168173ffffffffffffffffffffffffffffffffffffffff167fc5db8a929ac9e4c3c2d0dd77c8ab8dc5ea26b153522e7b47619dd12508ac8c7060405160405180910390a35050565b60008060149054906101000a900460ff16905090565b6000600260008373ffffffffffffffffffffffffffffffffffffffff1673ffffffffffffffffffffffffffffffffffffffff168152602001908152602001600020549050919050565b610e45611945565b73ffffffffffffffffffffffffffffffffffffffff16610e63610569565b73ffffffffffffffffffffffffffffffffffffffff1614610eb9576040517f08c379a0000000000000000000000000000000000000000000000000000000008152600401610eb0906121ad565b60405180910390fd5b610ec16118fb565b81600260008673ffffffffffffffffffffffffffffffffffffffff1673ffffffffffffffffffffffffffffffffffffffff168152602001908152602001600020541015610f43576040517f08c379a0000000000000000000000000000000000000000000000000000000008152600401610f3a906123ac565b60405180910390fd5b816005541015610f88576040517f08c379a0000000000000000000000000000000000000000000000000000000008152600401610f7f90611fdd565b60405180910390fd5b81600260008673ffffffffffffffffffffffffffffffffffffffff1673ffffffffffffffffffffffffffffffffffffffff1681526020019081526020016000206000828254610fd7919061202c565b925050819055508160056000828254610ff0919061202c565b9250508190555080600360008673ffffffffffffffffffffffffffffffffffffffff1673ffffffffffffffffffffffffffffffffffffffff168152602001908152602001600020600082825461104691906121cd565b92505081905550806006600082825461105f91906121cd565b9250508190555060016007600082825461107991906121cd565b925050819055508260405161108e9190612272565b60405180910390208473ffffffffffffffffffffffffffffffffffffffff163373ffffffffffffffffffffffffffffffffffffffff167fc0e3b3bf3b856068b6537f07e399954cb5abc4fade906ee21432a8ded3c36ec885856007546040516110f9939291906123cc565b60405180910390a450505050565b61110f61187d565b611119600061194d565b565b6000600654905090565b60008060009054906101000a900473ffffffffffffffffffffffffffffffffffffffff16905090565b6000600554905090565b611160611945565b73ffffffffffffffffffffffffffffffffffffffff1661117e610569565b73ffffffffffffffffffffffffffffffffffffffff16146111d4576040517f08c379a00000000000000000000000000000000000000000000000000000000081526004016111cb906121ad565b60405180910390fd5b6111dc6118fb565b80600360008573ffffffffffffffffffffffffffffffffffffffff1673ffffffffffffffffffffffffffffffffffffffff16815260200190815260200160002054101561125e576040517f08c379a0000000000000000000000000000000000000000000000000000000008152600401611255906123ac565b60405180910390fd5b8060065410156112a3576040517f08c379a000000000000000000000000000000000000000000000000000000000815260040161129a90611fdd565b60405180910390fd5b80600360008573ffffffffffffffffffffffffffffffffffffffff1673ffffffffffffffffffffffffffffffffffffffff16815260200190815260200160002060008282546112f2919061202c565b92505081905550806006600082825461130b919061202c565b9250508190555060016007600082825461132591906121cd565b925050819055508160405161133a9190612272565b60405180910390208373ffffffffffffffffffffffffffffffffffffffff163373ffffffffffffffffffffffffffffffffffffffff167f5ea89a451d63f38165c286044536de190fc7ecb86a2360721e3cf859f4c309ea846007546040516113a3929190612289565b60405180910390a4505050565b6113b86118fb565b600160009054906101000a900473ffffffffffffffffffffffffffffffffffffffff1673ffffffffffffffffffffffffffffffffffffffff166323b872dd3330846040518463ffffffff1660e01b815260040161141793929190611e84565b6020604051808303816000875af1158015611436573d6000803e3d6000fd5b505050506040513d601f19601f8201168201806040525081019061145a9190611ee7565b611499576040517f08c379a00000000000000000000000000000000000000000000000000000000081526004016114909061244f565b60405180910390fd5b80600560008282546114ab91906121cd565b9250508190555080600260003373ffffffffffffffffffffffffffffffffffffffff1673ffffffffffffffffffffffffffffffffffffffff168152602001908152602001600020600082825461150191906121cd565b925050819055503373ffffffffffffffffffffffffffffffffffffffff167f2da466a7b24304f47e87fa2e1e5a81b9831ce54fec19055ce277ca2f39ba42c48260405161154e9190611d77565b60405180910390a250565b6000600360008373ffffffffffffffffffffffffffffffffffffffff1673ffffffffffffffffffffffffffffffffffffffff168152602001908152602001600020549050919050565b6115aa611945565b73ffffffffffffffffffffffffffffffffffffffff166115c8610569565b73ffffffffffffffffffffffffffffffffffffffff161461161e576040517f08c379a0000000000000000000000000000000000000000000000000000000008152600401611615906121ad565b60405180910390fd5b6116266118fb565b81600554101561166b576040517f08c379a000000000000000000000000000000000000000000000000000000000815260040161166290611fdd565b60405180910390fd5b816005600082825461167d919061202c565b9250508190555081600260008573ffffffffffffffffffffffffffffffffffffffff1673ffffffffffffffffffffffffffffffffffffffff168152602001908152602001600020541015611706576040517f08c379a00000000000000000000000000000000000000000000000000000000081526004016116fd906120ac565b60405180910390fd5b81600260008573ffffffffffffffffffffffffffffffffffffffff1673ffffffffffffffffffffffffffffffffffffffff1681526020019081526020016000206000828254611755919061202c565b9250508190555060016007600082825461176f91906121cd565b92505081905550806040516117849190612272565b60405180910390208373ffffffffffffffffffffffffffffffffffffffff163373ffffffffffffffffffffffffffffffffffffffff167fdb870294ae24a2bf2ff674c645eec9890a5c168051b21ce30fff412ea8cecc29856007546040516117ed929190612289565b60405180910390a4505050565b61180261187d565b600073ffffffffffffffffffffffffffffffffffffffff168173ffffffffffffffffffffffffffffffffffffffff1603611871576040517f08c379a0000000000000000000000000000000000000000000000000000000008152600401611868906124e1565b60405180910390fd5b61187a8161194d565b50565b611885611945565b73ffffffffffffffffffffffffffffffffffffffff166118a3611125565b73ffffffffffffffffffffffffffffffffffffffff16146118f9576040517f08c379a00000000000000000000000000000000000000000000000000000000081526004016118f0906121ad565b60405180910390fd5b565b611903610dde565b15611943576040517f08c379a000000000000000000000000000000000000000000000000000000000815260040161193a9061254d565b60405180910390fd5b565b600033905090565b60008060009054906101000a900473ffffffffffffffffffffffffffffffffffffffff169050816000806101000a81548173ffffffffffffffffffffffffffffffffffffffff021916908373ffffffffffffffffffffffffffffffffffffffff1602179055508173ffffffffffffffffffffffffffffffffffffffff168173ffffffffffffffffffffffffffffffffffffffff167f8be0079c531659141344cd1fd0a4f28419497f9722a3daafe3b4186f6b6457e060405160405180910390a35050565b6000604051905090565b600080fd5b600080fd5b6000819050919050565b611a3881611a25565b8114611a4357600080fd5b50565b600081359050611a5581611a2f565b92915050565b600060208284031215611a7157611a70611a1b565b5b6000611a7f84828501611a46565b91505092915050565b600073ffffffffffffffffffffffffffffffffffffffff82169050919050565b6000611ab382611a88565b9050919050565b611ac381611aa8565b8114611ace57600080fd5b50565b600081359050611ae081611aba565b92915050565b600060208284031215611afc57611afb611a1b565b5b6000611b0a84828501611ad1565b91505092915050565b611b1c81611aa8565b82525050565b6000602082019050611b376000830184611b13565b92915050565b600080fd5b600080fd5b6000601f19601f8301169050919050565b7f4e487b7100000000000000000000000000000000000000000000000000000000600052604160045260246000fd5b611b9082611b47565b810181811067ffffffffffffffff82111715611baf57611bae611b58565b5b80604052505050565b6000611bc2611a11565b9050611bce8282611b87565b919050565b600067ffffffffffffffff821115611bee57611bed611b58565b5b611bf782611b47565b9050602081019050919050565b82818337600083830152505050565b6000611c26611c2184611bd3565b611bb8565b905082815260208101848484011115611c4257611c41611b42565b5b611c4d848285611c04565b509392505050565b600082601f830112611c6a57611c69611b3d565b5b8135611c7a848260208601611c13565b91505092915050565b600080600060608486031215611c9c57611c9b611a1b565b5b6000611caa86828701611ad1565b9350506020611cbb86828701611a46565b925050604084013567ffffffffffffffff811115611cdc57611cdb611a20565b5b611ce886828701611c55565b9150509250925092565b60008060408385031215611d0957611d08611a1b565b5b6000611d1785828601611ad1565b9250506020611d2885828601611a46565b9150509250929050565b60008115159050919050565b611d4781611d32565b82525050565b6000602082019050611d626000830184611d3e565b92915050565b611d7181611a25565b82525050565b6000602082019050611d8c6000830184611d68565b92915050565b60008060008060808587031215611dac57611dab611a1b565b5b6000611dba87828801611ad1565b945050602085013567ffffffffffffffff811115611ddb57611dda611a20565b5b611de787828801611c55565b9350506040611df887828801611a46565b9250506060611e0987828801611a46565b91505092959194509250565b600080600060608486031215611e2e57611e2d611a1b565b5b6000611e3c86828701611ad1565b935050602084013567ffffffffffffffff811115611e5d57611e5c611a20565b5b611e6986828701611c55565b9250506040611e7a86828701611a46565b9150509250925092565b6000606082019050611e996000830186611b13565b611ea66020830185611b13565b611eb36040830184611d68565b949350505050565b611ec481611d32565b8114611ecf57600080fd5b50565b600081519050611ee181611ebb565b92915050565b600060208284031215611efd57611efc611a1b565b5b6000611f0b84828501611ed2565b91505092915050565b600082825260208201905092915050565b7f61646d696e204465706f736974206661696c0000000000000000000000000000600082015250565b6000611f5b601283611f14565b9150611f6682611f25565b602082019050919050565b60006020820190508181036000830152611f8a81611f4e565b9050919050565b7f636f6e747261637420696e73756666696369656e742062616c616e6365000000600082015250565b6000611fc7601d83611f14565b9150611fd282611f91565b602082019050919050565b60006020820190508181036000830152611ff681611fba565b9050919050565b7f4e487b7100000000000000000000000000000000000000000000000000000000600052601160045260246000fd5b600061203782611a25565b915061204283611a25565b925082820390508181111561205a57612059611ffd565b5b92915050565b7f757365722020696e73756666696369656e742062616c616e6365000000000000600082015250565b6000612096601a83611f14565b91506120a182612060565b602082019050919050565b600060208201905081810360008301526120c581612089565b9050919050565b60006040820190506120e16000830185611b13565b6120ee6020830184611d68565b9392505050565b7f75736572207769746864726177206661696c0000000000000000000000000000600082015250565b600061212b601283611f14565b9150612136826120f5565b602082019050919050565b6000602082019050818103600083015261215a8161211e565b9050919050565b7f4f776e61626c653a2063616c6c6572206973206e6f7420746865206f776e6572600082015250565b6000612197602083611f14565b91506121a282612161565b602082019050919050565b600060208201905081810360008301526121c68161218a565b9050919050565b60006121d882611a25565b91506121e383611a25565b92508282019050808211156121fb576121fa611ffd565b5b92915050565b600081519050919050565b600081905092915050565b60005b8381101561223557808201518184015260208101905061221a565b60008484015250505050565b600061224c82612201565b612256818561220c565b9350612266818560208601612217565b80840191505092915050565b600061227e8284612241565b915081905092915050565b600060408201905061229e6000830185611d68565b6122ab6020830184611d68565b9392505050565b6000815190506122c181611a2f565b92915050565b6000602082840312156122dd576122dc611a1b565b5b60006122eb848285016122b2565b91505092915050565b7f61646d696e207769746864726177206661696c00000000000000000000000000600082015250565b600061232a601383611f14565b9150612335826122f4565b602082019050919050565b600060208201905081810360008301526123598161231d565b9050919050565b7f7573657220696e73756666696369656e742062616c616e636500000000000000600082015250565b6000612396601983611f14565b91506123a182612360565b602082019050919050565b600060208201905081810360008301526123c581612389565b9050919050565b60006060820190506123e16000830186611d68565b6123ee6020830185611d68565b6123fb6040830184611d68565b949350505050565b7f75736572206465706f736974206661696c000000000000000000000000000000600082015250565b6000612439601183611f14565b915061244482612403565b602082019050919050565b600060208201905081810360008301526124688161242c565b9050919050565b7f4f776e61626c653a206e6577206f776e657220697320746865207a65726f206160008201527f6464726573730000000000000000000000000000000000000000000000000000602082015250565b60006124cb602683611f14565b91506124d68261246f565b604082019050919050565b600060208201905081810360008301526124fa816124be565b9050919050565b7f5061757361626c653a2070617573656400000000000000000000000000000000600082015250565b6000612537601083611f14565b915061254282612501565b602082019050919050565b600060208201905081810360008301526125668161252a565b905091905056fea26469706673582212203992b4d4a58acdfdf82f2672d51e79a83f37922405e9ab5e268806d933f3b41a64736f6c63430008110033",
  "immutableReferences": {},
  "source": "// contracts/GLDToken.sol\r\n// SPDX-License-Identifier: MIT\r\npragma solidity ^0.8.0;\r\n\r\nimport \"@openzeppelin/contracts/access/Ownable.sol\";\r\nimport \"@openzeppelin/contracts/token/ERC20/IERC20.sol\";\r\nimport \"@openzeppelin/contracts/utils/math/Math.sol\";\r\nimport \"@openzeppelin/contracts/security/Pausable.sol\";\r\n\r\ncontract clientHandler is Ownable, Pausable {\r\n    using Math for uint256;\r\n    address _token;\r\n    mapping (address => uint256)  _balances;\r\n    mapping (address => uint256)  _size;\r\n    // mapping (uint256 => address)  _accouts;\r\n   \r\n    // uint256 _accoutCount; //\r\n    event AdminDeposited(address indexed  sender,address indexed  to, uint256 amount);\r\n    event AdminWithdrawed(address indexed  sender,address indexed  to, uint256 amount);\r\n\r\n    event StoreDeposited(address indexed sender,address indexed  to,string indexed chainId, uint256 amount,uint256 nonce);\r\n    event StoreWithdrawed(address indexed sender,address indexed  to,string indexed chainId, uint256 amount,uint256 nonce);\r\n\r\n    event StoreOrderPay(address indexed  sender,address indexed  to, string indexed hashid, uint256 amount, uint256 size,uint256 nonce);\r\n    event StoreOrderExpirationed(address indexed  sender,address indexed  to, string indexed hashid, uint256 size,uint256 nonce);\r\n\r\n\r\n    \r\n    event Deposited(address indexed  sender,uint256 amount);\r\n    event Withdrawed(address indexed   sender, uint256 amount);\r\n    event StoreAdminshipTransferred(address indexed newAdmin, address indexed oldAdmin);\r\n\r\n\r\n    address _storeadmin; //\r\n    uint256 _storeAmount; //\r\n    uint256 _storeSize; //\r\n    uint256 _nonce; //\r\n    \r\n\r\n    constructor(address storeadmin,address erc20token) Ownable() {\r\n        _storeadmin = storeadmin;\r\n        _token = erc20token;\r\n    }\r\n    // ERC20,\r\n    function adminDeposit(uint256 amount) public {  \r\n        // uint256 allowance = IERC20(_token).allowance(msg.sender, address(this));\r\n        // require(allowance >= amount, \"Check the token allowance\");\r\n        require(IERC20(_token).transferFrom(msg.sender, address(this), amount),\"admin Deposit fail\");\r\n        emit AdminDeposited(msg.sender,msg.sender,amount);\r\n    }\r\n    // ERC20\r\n    function adminWithdraw(address to, uint256 amount) public onlyOwner {\r\n        uint256 balance = IERC20(_token).balanceOf(address(this));\r\n        require(balance>=amount, \"contract insufficient balance\");\r\n        require(IERC20(_token).transfer(to, amount),\"admin withdraw fail\");\r\n       emit AdminWithdrawed(msg.sender,to,amount);\r\n    }\r\n\r\n    modifier onlyStoreOwner() {\r\n        require(getStoreadmin() == _msgSender(), \"Ownable: caller is not the owner\");\r\n        _;\r\n    }\r\n    // \r\n    function storeDeposit(address to, uint256 amount,string memory chainId) public onlyStoreOwner whenNotPaused  {  \r\n       // IERC20(_token).transfer(to, amount);\r\n       _balances[to] += amount;\r\n       _storeAmount += amount;\r\n       _nonce+=1;\r\n       emit  StoreDeposited(msg.sender,to,chainId,amount,_nonce);      \r\n    }\r\n  // \r\n  function storeWithdraw(address to, uint256 amount,string memory chainId) public onlyStoreOwner whenNotPaused {\r\n    require(_storeAmount>=amount, \"contract insufficient balance\");\r\n    _storeAmount -= amount;\r\n    require(_balances[to]>=amount, \"user  insufficient balance\");\r\n    _balances[to] -= amount;\r\n     _nonce+=1;\r\n    emit StoreWithdrawed(msg.sender,to,chainId,amount,_nonce);\r\n  }\r\n\r\n    // ,\r\n  function storeOrderpay(address to,string memory hashid, uint256 amount,uint256 size)  public onlyStoreOwner whenNotPaused{ \r\n        require(_balances[to]>=amount, \"user insufficient balance\"); \r\n        require(_storeAmount>=amount, \"contract insufficient balance\");\r\n        _balances[to] -= amount;\r\n         _storeAmount -= amount;\r\n        _size[to] += size;\r\n        _storeSize += size;\r\n        _nonce+=1;\r\n       emit StoreOrderPay(msg.sender,to ,hashid,amount, size,_nonce);\r\n    }\r\n\r\n\r\n    //  \r\n    function storeOrderExpiration(address to,string memory hashid, uint256 size)  public onlyStoreOwner whenNotPaused{ \r\n        require(_size[to]>=size, \"user insufficient balance\"); \r\n        require(_storeSize>=size, \"contract insufficient balance\");\r\n        _size[to] -= size;\r\n        _storeSize -= size;\r\n        _nonce+=1;\r\n       emit StoreOrderExpirationed(msg.sender,to ,hashid,size,_nonce);\r\n    }\r\n    \r\n\r\n  // \r\n  function withdraw(uint256 amount) public whenNotPaused {\r\n    require(_storeAmount>=amount, \"contract insufficient balance\");\r\n    _storeAmount -= amount;\r\n    require(_balances[msg.sender]>=amount, \"user  insufficient balance\");\r\n    _balances[msg.sender] -= amount;\r\n    require(IERC20(_token).transfer(msg.sender, amount),\"user withdraw fail\");\r\n    emit Withdrawed(msg.sender,amount);\r\n  }\r\n    // \r\n  function deposit(uint256 amount) public whenNotPaused {\r\n    require(IERC20(_token).transferFrom(msg.sender, address(this), amount),\"user deposit fail\");\r\n    _storeAmount += amount;\r\n    _balances[msg.sender] += amount;\r\n    emit Deposited(msg.sender,amount);\r\n  }\r\n  \r\n   //\r\n   function balanceOf(address account) public  view returns (uint256) {\r\n      return _balances[account];\r\n   }\r\n      //\r\n   function StoreSize(address account) public  view returns (uint256) {\r\n      return _size[account];\r\n   }\r\n       //\r\n   function getStoreAllSize() public  view returns (uint256) {\r\n      return _storeSize;\r\n    }\r\n\r\n    //\r\n   function getStoreAmount() public  view returns (uint256) {\r\n      return _storeAmount;\r\n    }\r\n   function getStoreadmin() public  view returns (address) {\r\n      return _storeadmin;\r\n    }\r\n   function getToken() public  view returns (address) {\r\n      return _token;\r\n    }\r\n    \r\n   function setToken(address newtoken) public onlyOwner  {\r\n     _token = newtoken;\r\n   }\r\n   function transferStoreAdminship(address newStoreAdmin) public onlyStoreOwner whenNotPaused  {\r\n     address oldStoreAdmin = _storeadmin;\r\n     _storeadmin = newStoreAdmin;\r\n     emit StoreAdminshipTransferred(oldStoreAdmin, newStoreAdmin);\r\n   }\r\n    \r\n   function setStoreAdmin(address newStoreAdmin) public onlyOwner  {\r\n     address oldStoreAdmin = _storeadmin;\r\n     _storeadmin = newStoreAdmin;\r\n     emit StoreAdminshipTransferred(oldStoreAdmin, newStoreAdmin);\r\n   }\r\n   \r\n}",
  "sourcePath": "E:\\code\\chainwork\\maiyun\\memo-mlcontracts\\contracts\\clientHandler.sol",
  "compiler": {
    "name": "solc",
    "version": "0.8.17+commit.8df45f5f.Emscripten.clang"
  },
  "schemaVersion": "3.4.10",
  "updatedAt": "2022-12-07T06:12:58.075Z",
  "devdoc": {
    "kind": "dev",
    "methods": {
      "owner()": {
        "details": "Returns the address of the current owner."
      },
      "paused()": {
        "details": "Returns true if the contract is paused, and false otherwise."
      },
      "renounceOwnership()": {
        "details": "Leaves the contract without owner. It will not be possible to call `onlyOwner` functions anymore. Can only be called by the current owner. NOTE: Renouncing ownership will leave the contract without an owner, thereby removing any functionality that is only available to the owner."
      },
      "transferOwnership(address)": {
        "details": "Transfers ownership of the contract to a new account (`newOwner`). Can only be called by the current owner."
      }
    },
    "version": 1
  },
  "userdoc": {
    "kind": "user",
    "methods": {},
    "version": 1
  }
}